{
  "address": "0xAda3e9E6FBFf9B83a4ad8f9Ee58BcA52CD5d46c7",
  "abi": [
    {
      "inputs": [
        {
          "internalType": "contract TATU",
          "name": "_tatu",
          "type": "address"
        },
        {
          "internalType": "address",
          "name": "_devaddr",
          "type": "address"
        },
        {
          "internalType": "uint256",
          "name": "_tatuPerBlock",
          "type": "uint256"
        },
        {
          "internalType": "uint256",
          "name": "_startBlock",
          "type": "uint256"
        },
        {
          "internalType": "uint256",
          "name": "_bonusEndBlock",
          "type": "uint256"
        }
      ],
      "stateMutability": "nonpayable",
      "type": "constructor"
    },
    {
      "anonymous": false,
      "inputs": [
        {
          "indexed": true,
          "internalType": "address",
          "name": "user",
          "type": "address"
        },
        {
          "indexed": true,
          "internalType": "uint256",
          "name": "pid",
          "type": "uint256"
        },
        {
          "indexed": false,
          "internalType": "uint256",
          "name": "amount",
          "type": "uint256"
        }
      ],
      "name": "Deposit",
      "type": "event"
    },
    {
      "anonymous": false,
      "inputs": [
        {
          "indexed": true,
          "internalType": "address",
          "name": "user",
          "type": "address"
        },
        {
          "indexed": true,
          "internalType": "uint256",
          "name": "pid",
          "type": "uint256"
        },
        {
          "indexed": false,
          "internalType": "uint256",
          "name": "amount",
          "type": "uint256"
        }
      ],
      "name": "EmergencyWithdraw",
      "type": "event"
    },
    {
      "anonymous": false,
      "inputs": [
        {
          "indexed": true,
          "internalType": "address",
          "name": "previousOwner",
          "type": "address"
        },
        {
          "indexed": true,
          "internalType": "address",
          "name": "newOwner",
          "type": "address"
        }
      ],
      "name": "OwnershipTransferred",
      "type": "event"
    },
    {
      "anonymous": false,
      "inputs": [
        {
          "indexed": true,
          "internalType": "address",
          "name": "user",
          "type": "address"
        },
        {
          "indexed": true,
          "internalType": "uint256",
          "name": "pid",
          "type": "uint256"
        },
        {
          "indexed": false,
          "internalType": "uint256",
          "name": "amount",
          "type": "uint256"
        }
      ],
      "name": "Withdraw",
      "type": "event"
    },
    {
      "inputs": [],
      "name": "BONUS_MULTIPLIER",
      "outputs": [
        {
          "internalType": "uint256",
          "name": "",
          "type": "uint256"
        }
      ],
      "stateMutability": "view",
      "type": "function"
    },
    {
      "inputs": [
        {
          "internalType": "uint256",
          "name": "_allocPoint",
          "type": "uint256"
        },
        {
          "internalType": "contract IERC20",
          "name": "_lpToken",
          "type": "address"
        },
        {
          "internalType": "bool",
          "name": "_withUpdate",
          "type": "bool"
        }
      ],
      "name": "add",
      "outputs": [],
      "stateMutability": "nonpayable",
      "type": "function"
    },
    {
      "inputs": [],
      "name": "bonusEndBlock",
      "outputs": [
        {
          "internalType": "uint256",
          "name": "",
          "type": "uint256"
        }
      ],
      "stateMutability": "view",
      "type": "function"
    },
    {
      "inputs": [
        {
          "internalType": "uint256",
          "name": "_pid",
          "type": "uint256"
        },
        {
          "internalType": "uint256",
          "name": "_amount",
          "type": "uint256"
        }
      ],
      "name": "deposit",
      "outputs": [],
      "stateMutability": "nonpayable",
      "type": "function"
    },
    {
      "inputs": [
        {
          "internalType": "address",
          "name": "_devaddr",
          "type": "address"
        }
      ],
      "name": "dev",
      "outputs": [],
      "stateMutability": "nonpayable",
      "type": "function"
    },
    {
      "inputs": [],
      "name": "devaddr",
      "outputs": [
        {
          "internalType": "address",
          "name": "",
          "type": "address"
        }
      ],
      "stateMutability": "view",
      "type": "function"
    },
    {
      "inputs": [
        {
          "internalType": "uint256",
          "name": "_pid",
          "type": "uint256"
        }
      ],
      "name": "emergencyWithdraw",
      "outputs": [],
      "stateMutability": "nonpayable",
      "type": "function"
    },
    {
      "inputs": [
        {
          "internalType": "uint256",
          "name": "_from",
          "type": "uint256"
        },
        {
          "internalType": "uint256",
          "name": "_to",
          "type": "uint256"
        }
      ],
      "name": "getMultiplier",
      "outputs": [
        {
          "internalType": "uint256",
          "name": "",
          "type": "uint256"
        }
      ],
      "stateMutability": "view",
      "type": "function"
    },
    {
      "inputs": [],
      "name": "massUpdatePools",
      "outputs": [],
      "stateMutability": "nonpayable",
      "type": "function"
    },
    {
      "inputs": [
        {
          "internalType": "uint256",
          "name": "_pid",
          "type": "uint256"
        }
      ],
      "name": "migrate",
      "outputs": [],
      "stateMutability": "nonpayable",
      "type": "function"
    },
    {
      "inputs": [],
      "name": "migrator",
      "outputs": [
        {
          "internalType": "contract IMigratorChef",
          "name": "",
          "type": "address"
        }
      ],
      "stateMutability": "view",
      "type": "function"
    },
    {
      "inputs": [],
      "name": "owner",
      "outputs": [
        {
          "internalType": "address",
          "name": "",
          "type": "address"
        }
      ],
      "stateMutability": "view",
      "type": "function"
    },
    {
      "inputs": [
        {
          "internalType": "uint256",
          "name": "_pid",
          "type": "uint256"
        },
        {
          "internalType": "address",
          "name": "_user",
          "type": "address"
        }
      ],
      "name": "pendingTatu",
      "outputs": [
        {
          "internalType": "uint256",
          "name": "",
          "type": "uint256"
        }
      ],
      "stateMutability": "view",
      "type": "function"
    },
    {
      "inputs": [
        {
          "internalType": "uint256",
          "name": "",
          "type": "uint256"
        }
      ],
      "name": "poolInfo",
      "outputs": [
        {
          "internalType": "contract IERC20",
          "name": "lpToken",
          "type": "address"
        },
        {
          "internalType": "uint256",
          "name": "allocPoint",
          "type": "uint256"
        },
        {
          "internalType": "uint256",
          "name": "lastRewardBlock",
          "type": "uint256"
        },
        {
          "internalType": "uint256",
          "name": "accTatuPerShare",
          "type": "uint256"
        }
      ],
      "stateMutability": "view",
      "type": "function"
    },
    {
      "inputs": [],
      "name": "poolLength",
      "outputs": [
        {
          "internalType": "uint256",
          "name": "",
          "type": "uint256"
        }
      ],
      "stateMutability": "view",
      "type": "function"
    },
    {
      "inputs": [],
      "name": "renounceOwnership",
      "outputs": [],
      "stateMutability": "nonpayable",
      "type": "function"
    },
    {
      "inputs": [
        {
          "internalType": "uint256",
          "name": "_pid",
          "type": "uint256"
        },
        {
          "internalType": "uint256",
          "name": "_allocPoint",
          "type": "uint256"
        },
        {
          "internalType": "bool",
          "name": "_withUpdate",
          "type": "bool"
        }
      ],
      "name": "set",
      "outputs": [],
      "stateMutability": "nonpayable",
      "type": "function"
    },
    {
      "inputs": [
        {
          "internalType": "contract IMigratorChef",
          "name": "_migrator",
          "type": "address"
        }
      ],
      "name": "setMigrator",
      "outputs": [],
      "stateMutability": "nonpayable",
      "type": "function"
    },
    {
      "inputs": [],
      "name": "startBlock",
      "outputs": [
        {
          "internalType": "uint256",
          "name": "",
          "type": "uint256"
        }
      ],
      "stateMutability": "view",
      "type": "function"
    },
    {
      "inputs": [],
      "name": "tatu",
      "outputs": [
        {
          "internalType": "contract TATU",
          "name": "",
          "type": "address"
        }
      ],
      "stateMutability": "view",
      "type": "function"
    },
    {
      "inputs": [],
      "name": "tatuPerBlock",
      "outputs": [
        {
          "internalType": "uint256",
          "name": "",
          "type": "uint256"
        }
      ],
      "stateMutability": "view",
      "type": "function"
    },
    {
      "inputs": [],
      "name": "totalAllocPoint",
      "outputs": [
        {
          "internalType": "uint256",
          "name": "",
          "type": "uint256"
        }
      ],
      "stateMutability": "view",
      "type": "function"
    },
    {
      "inputs": [
        {
          "internalType": "address",
          "name": "newOwner",
          "type": "address"
        }
      ],
      "name": "transferOwnership",
      "outputs": [],
      "stateMutability": "nonpayable",
      "type": "function"
    },
    {
      "inputs": [
        {
          "internalType": "uint256",
          "name": "_pid",
          "type": "uint256"
        }
      ],
      "name": "updatePool",
      "outputs": [],
      "stateMutability": "nonpayable",
      "type": "function"
    },
    {
      "inputs": [
        {
          "internalType": "uint256",
          "name": "",
          "type": "uint256"
        },
        {
          "internalType": "address",
          "name": "",
          "type": "address"
        }
      ],
      "name": "userInfo",
      "outputs": [
        {
          "internalType": "uint256",
          "name": "amount",
          "type": "uint256"
        },
        {
          "internalType": "uint256",
          "name": "rewardDebt",
          "type": "uint256"
        }
      ],
      "stateMutability": "view",
      "type": "function"
    },
    {
      "inputs": [
        {
          "internalType": "uint256",
          "name": "_pid",
          "type": "uint256"
        },
        {
          "internalType": "uint256",
          "name": "_amount",
          "type": "uint256"
        }
      ],
      "name": "withdraw",
      "outputs": [],
      "stateMutability": "nonpayable",
      "type": "function"
    }
  ],
  "transactionHash": "0xccacbdf0b13aeed092700bdde721622af35d3186e7a969db4dc757b8b576a9cc",
  "args": [
    "0x237840ff450806058Dfd1A335816bd144cAa7113",
    "0x145fDF02e64999B875B3c443a596749712abeB5E",
    "100000000000000000000",
    "24689935000000000000000000",
    "24689995000000000000000000"
  ],
  "numDeployments": 1,
  "solcInputHash": "a510510b1b1600014ca4fc8760303cfd",
  "bytecode": "0x608060405260006008553480156200001657600080fd5b5060405162001bc938038062001bc98339810160408190526200003991620000d3565b620000443362000083565b600180546001600160a01b039687166001600160a01b031991821617909155600280549590961694169390931790935560045560035560095562000143565b600080546001600160a01b038381166001600160a01b0319831681178455604051919092169283917f8be0079c531659141344cd1fd0a4f28419497f9722a3daafe3b4186f6b6457e09190a35050565b600080600080600060a08688031215620000eb578081fd5b8551620000f8816200012a565b60208701519095506200010b816200012a565b6040870151606088015160809098015196999198509695945092505050565b6001600160a01b03811681146200014057600080fd5b50565b611a7680620001536000396000f3fe608060405234801561001057600080fd5b506004361061018e5760003560e01c8063715018a6116100de57806393f1a40b11610097578063d49e77cd11610071578063d49e77cd14610366578063d981318c14610379578063e2bbb1581461038c578063f2fde38b1461039f57600080fd5b806393f1a40b14610303578063a7f100c01461034a578063b6dd95261461035d57600080fd5b8063715018a6146102915780637cd07e47146102995780638aa28550146102c45780638d88a90e146102cc5780638da5cb5b146102df5780638dbb1e3a146102f057600080fd5b8063441a3e701161014b57806351eb05a61161012557806351eb05a6146102505780635312ea8e14610263578063630b5ba11461027657806364482f791461027e57600080fd5b8063441a3e7014610221578063454b06081461023457806348cd4cb11461024757600080fd5b8063081e3eda146101935780631526fe27146101aa57806317caf6f1146101e75780631aed6553146101f05780631eaaa045146101f957806323cf31181461020e575b600080fd5b6006545b6040519081526020015b60405180910390f35b6101bd6101b83660046117e0565b6103b2565b604080516001600160a01b03909516855260208501939093529183015260608201526080016101a1565b61019760085481565b61019760035481565b61020c61020736600461183f565b6103f6565b005b61020c61021c36600461178c565b61054c565b61020c61022f366004611880565b610598565b61020c6102423660046117e0565b6106fa565b61019760095481565b61020c61025e3660046117e0565b610970565b61020c6102713660046117e0565b610bdd565b61020c610c8d565b61020c61028c3660046118a1565b610cb8565b61020c610d83565b6005546102ac906001600160a01b031681565b6040516001600160a01b0390911681526020016101a1565b610197600a81565b61020c6102da36600461178c565b610db9565b6000546001600160a01b03166102ac565b6101976102fe366004611880565b610e21565b610335610311366004611810565b60076020908152600092835260408084209091529082529020805460019091015482565b604080519283526020830191909152016101a1565b610197610358366004611810565b610e8d565b61019760045481565b6002546102ac906001600160a01b031681565b6001546102ac906001600160a01b031681565b61020c61039a366004611880565b611007565b61020c6103ad36600461178c565b611120565b600681815481106103c257600080fd5b600091825260209091206004909102018054600182015460028301546003909301546001600160a01b039092169350919084565b6000546001600160a01b031633146104295760405162461bcd60e51b81526004016104209061191d565b60405180910390fd5b801561043757610437610c8d565b6000600954431161044a5760095461044c565b435b60085490915061045c90856111bb565b600855604080516080810182526001600160a01b0394851681526020810195865290810191825260006060820181815260068054600181018255925291517ff652222313e28459528d920b65115c16c04f3efc82aaedc97be59f3f377c0d3f600490920291820180546001600160a01b031916919096161790945593517ff652222313e28459528d920b65115c16c04f3efc82aaedc97be59f3f377c0d40840155517ff652222313e28459528d920b65115c16c04f3efc82aaedc97be59f3f377c0d418301555090517ff652222313e28459528d920b65115c16c04f3efc82aaedc97be59f3f377c0d4290910155565b6000546001600160a01b031633146105765760405162461bcd60e51b81526004016104209061191d565b600580546001600160a01b0319166001600160a01b0392909216919091179055565b6000600683815481106105bb57634e487b7160e01b600052603260045260246000fd5b6000918252602080832086845260078252604080852033865290925292208054600490920290920192508311156106295760405162461bcd60e51b81526020600482015260126024820152711dda5d1a191c985dce881b9bdd0819dbdbd960721b6044820152606401610420565b61063284610970565b600061066c826001015461066664e8d4a51000610660876003015487600001546111ce90919063ffffffff16565b906111da565b906111e6565b905061067833826111f2565b815461068490856111e6565b80835560038401546106a19164e8d4a510009161066091906111ce565b600183015582546106bc906001600160a01b03163386611343565b604051848152859033907ff279e6a1f5e320cca91135676d9cb6e44ca8a08c0b88342bcdb1144f6511b5689060200160405180910390a35050505050565b6005546001600160a01b03166107495760405162461bcd60e51b815260206004820152601460248201527336b4b3b930ba329d1037379036b4b3b930ba37b960611b6044820152606401610420565b60006006828154811061076c57634e487b7160e01b600052603260045260246000fd5b60009182526020822060049182020180546040516370a0823160e01b815230938101939093529093506001600160a01b0316919082906370a082319060240160206040518083038186803b1580156107c357600080fd5b505afa1580156107d7573d6000803e3d6000fd5b505050506040513d601f19601f820116820180604052508101906107fb91906117f8565b600554909150610818906001600160a01b038481169116836113a6565b60055460405163ce5494bb60e01b81526001600160a01b038481166004830152600092169063ce5494bb90602401602060405180830381600087803b15801561086057600080fd5b505af1158015610874573d6000803e3d6000fd5b505050506040513d601f19601f8201168201806040525081019061089891906117c4565b6040516370a0823160e01b81523060048201529091506001600160a01b038216906370a082319060240160206040518083038186803b1580156108da57600080fd5b505afa1580156108ee573d6000803e3d6000fd5b505050506040513d601f19601f8201168201806040525081019061091291906117f8565b821461094f5760405162461bcd60e51b815260206004820152600c60248201526b1b5a59dc985d194e8818985960a21b6044820152606401610420565b83546001600160a01b0319166001600160a01b039190911617909255505050565b60006006828154811061099357634e487b7160e01b600052603260045260246000fd5b90600052602060002090600402019050806002015443116109b2575050565b80546040516370a0823160e01b81523060048201526000916001600160a01b0316906370a082319060240160206040518083038186803b1580156109f557600080fd5b505afa158015610a09573d6000803e3d6000fd5b505050506040513d601f19601f82011682018060405250810190610a2d91906117f8565b905080610a3f57504360029091015550565b6000610a4f836002015443610e21565b90506000610a7c6008546106608660010154610a76600454876111ce90919063ffffffff16565b906111ce565b6001546002549192506001600160a01b03908116916340c10f199116610aa384600a6111da565b6040516001600160e01b031960e085901b1681526001600160a01b0390921660048301526024820152604401602060405180830381600087803b158015610ae957600080fd5b505af1158015610afd573d6000803e3d6000fd5b505050506040513d601f19601f82011682018060405250810190610b2191906117a8565b506001546040516340c10f1960e01b8152306004820152602481018390526001600160a01b03909116906340c10f1990604401602060405180830381600087803b158015610b6e57600080fd5b505af1158015610b82573d6000803e3d6000fd5b505050506040513d601f19601f82011682018060405250810190610ba691906117a8565b50610bc8610bbd846106608464e8d4a510006111ce565b6003860154906111bb565b60038501555050436002909201919091555050565b600060068281548110610c0057634e487b7160e01b600052603260045260246000fd5b60009182526020808320858452600782526040808520338087529352909320805460049093029093018054909450610c45926001600160a01b03919091169190611343565b8054604051908152839033907fbb757047c2b5f3974fe26b7c10f732e7bce710b0952a71082702781e62ae05959060200160405180910390a360008082556001909101555050565b60065460005b81811015610cb457610ca481610970565b610cad816119ec565b9050610c93565b5050565b6000546001600160a01b03163314610ce25760405162461bcd60e51b81526004016104209061191d565b8015610cf057610cf0610c8d565b610d4182610d3b60068681548110610d1857634e487b7160e01b600052603260045260246000fd5b9060005260206000209060040201600101546008546111e690919063ffffffff16565b906111bb565b6008819055508160068481548110610d6957634e487b7160e01b600052603260045260246000fd5b906000526020600020906004020160010181905550505050565b6000546001600160a01b03163314610dad5760405162461bcd60e51b81526004016104209061191d565b610db760006114ca565b565b6002546001600160a01b03163314610dff5760405162461bcd60e51b81526020600482015260096024820152686465763a207775743f60b81b6044820152606401610420565b600280546001600160a01b0319166001600160a01b0392909216919091179055565b60006003548211610e4257610e3b600a610a7684866111e6565b9050610e87565b6003548310610e5557610e3b82846111e6565b610e3b610e6d600354846111e690919063ffffffff16565b610d3b600a610a76876003546111e690919063ffffffff16565b92915050565b60008060068481548110610eb157634e487b7160e01b600052603260045260246000fd5b600091825260208083208784526007825260408085206001600160a01b038981168752935280852060049485029092016003810154815492516370a0823160e01b8152309681019690965290965091949193919216906370a082319060240160206040518083038186803b158015610f2857600080fd5b505afa158015610f3c573d6000803e3d6000fd5b505050506040513d601f19601f82011682018060405250810190610f6091906117f8565b9050836002015443118015610f7457508015155b15610fd4576000610f89856002015443610e21565b90506000610fb06008546106608860010154610a76600454876111ce90919063ffffffff16565b9050610fcf610fc8846106608464e8d4a510006111ce565b85906111bb565b935050505b610ffc836001015461066664e8d4a510006106608688600001546111ce90919063ffffffff16565b979650505050505050565b60006006838154811061102a57634e487b7160e01b600052603260045260246000fd5b6000918252602080832086845260078252604080852033865290925292206004909102909101915061105b84610970565b80541561109e576000611090826001015461066664e8d4a51000610660876003015487600001546111ce90919063ffffffff16565b905061109c33826111f2565b505b81546110b5906001600160a01b031633308661151a565b80546110c190846111bb565b80825560038301546110de9164e8d4a510009161066091906111ce565b6001820155604051838152849033907f90890809c654f11d6e72a28fa60149770a0d11ec6c92319d6ceb2bb0a4ea1a159060200160405180910390a350505050565b6000546001600160a01b0316331461114a5760405162461bcd60e51b81526004016104209061191d565b6001600160a01b0381166111af5760405162461bcd60e51b815260206004820152602660248201527f4f776e61626c653a206e6577206f776e657220697320746865207a65726f206160448201526564647265737360d01b6064820152608401610420565b6111b8816114ca565b50565b60006111c78284611952565b9392505050565b60006111c7828461198a565b60006111c7828461196a565b60006111c782846119a9565b6001546040516370a0823160e01b81523060048201526000916001600160a01b0316906370a082319060240160206040518083038186803b15801561123657600080fd5b505afa15801561124a573d6000803e3d6000fd5b505050506040513d601f19601f8201168201806040525081019061126e91906117f8565b9050808211156113055760015460405163a9059cbb60e01b81526001600160a01b038581166004830152602482018490529091169063a9059cbb906044015b602060405180830381600087803b1580156112c757600080fd5b505af11580156112db573d6000803e3d6000fd5b505050506040513d601f19601f820116820180604052508101906112ff91906117a8565b50505050565b60015460405163a9059cbb60e01b81526001600160a01b038581166004830152602482018590529091169063a9059cbb906044016112ad565b505050565b6040516001600160a01b03831660248201526044810182905261133e90849063a9059cbb60e01b906064015b60408051601f198184030181529190526020810180516001600160e01b03166001600160e01b031990931692909217909152611552565b80158061142f5750604051636eb1769f60e11b81523060048201526001600160a01b03838116602483015284169063dd62ed3e9060440160206040518083038186803b1580156113f557600080fd5b505afa158015611409573d6000803e3d6000fd5b505050506040513d601f19601f8201168201806040525081019061142d91906117f8565b155b61149a5760405162461bcd60e51b815260206004820152603660248201527f5361666545524332303a20617070726f76652066726f6d206e6f6e2d7a65726f60448201527520746f206e6f6e2d7a65726f20616c6c6f77616e636560501b6064820152608401610420565b6040516001600160a01b03831660248201526044810182905261133e90849063095ea7b360e01b9060640161136f565b600080546001600160a01b038381166001600160a01b0319831681178455604051919092169283917f8be0079c531659141344cd1fd0a4f28419497f9722a3daafe3b4186f6b6457e09190a35050565b6040516001600160a01b03808516602483015283166044820152606481018290526112ff9085906323b872dd60e01b9060840161136f565b60006115a7826040518060400160405280602081526020017f5361666545524332303a206c6f772d6c6576656c2063616c6c206661696c6564815250856001600160a01b03166116249092919063ffffffff16565b80519091501561133e57808060200190518101906115c591906117a8565b61133e5760405162461bcd60e51b815260206004820152602a60248201527f5361666545524332303a204552433230206f7065726174696f6e20646964206e6044820152691bdd081cdd58d8d9595960b21b6064820152608401610420565b6060611633848460008561163b565b949350505050565b60608247101561169c5760405162461bcd60e51b815260206004820152602660248201527f416464726573733a20696e73756666696369656e742062616c616e636520666f6044820152651c8818d85b1b60d21b6064820152608401610420565b843b6116ea5760405162461bcd60e51b815260206004820152601d60248201527f416464726573733a2063616c6c20746f206e6f6e2d636f6e74726163740000006044820152606401610420565b600080866001600160a01b0316858760405161170691906118ce565b60006040518083038185875af1925050503d8060008114611743576040519150601f19603f3d011682016040523d82523d6000602084013e611748565b606091505b5091509150610ffc828286606083156117625750816111c7565b8251156117725782518084602001fd5b8160405162461bcd60e51b815260040161042091906118ea565b60006020828403121561179d578081fd5b81356111c781611a1d565b6000602082840312156117b9578081fd5b81516111c781611a32565b6000602082840312156117d5578081fd5b81516111c781611a1d565b6000602082840312156117f1578081fd5b5035919050565b600060208284031215611809578081fd5b5051919050565b60008060408385031215611822578081fd5b82359150602083013561183481611a1d565b809150509250929050565b600080600060608486031215611853578081fd5b83359250602084013561186581611a1d565b9150604084013561187581611a32565b809150509250925092565b60008060408385031215611892578182fd5b50508035926020909101359150565b6000806000606084860312156118b5578283fd5b8335925060208401359150604084013561187581611a32565b600082516118e08184602087016119c0565b9190910192915050565b60208152600082518060208401526119098160408501602087016119c0565b601f01601f19169190910160400192915050565b6020808252818101527f4f776e61626c653a2063616c6c6572206973206e6f7420746865206f776e6572604082015260600190565b6000821982111561196557611965611a07565b500190565b60008261198557634e487b7160e01b81526012600452602481fd5b500490565b60008160001904831182151516156119a4576119a4611a07565b500290565b6000828210156119bb576119bb611a07565b500390565b60005b838110156119db5781810151838201526020016119c3565b838111156112ff5750506000910152565b6000600019821415611a0057611a00611a07565b5060010190565b634e487b7160e01b600052601160045260246000fd5b6001600160a01b03811681146111b857600080fd5b80151581146111b857600080fdfea2646970667358221220e3c4988d0472cb71594c9b6be938b304cb3690aa8f861f79bdf82c0323110d8b64736f6c63430008040033",
  "devdoc": {
    "kind": "dev",
    "methods": {
      "owner()": {
        "details": "Returns the address of the current owner."
      },
      "renounceOwnership()": {
        "details": "Leaves the contract without owner. It will not be possible to call `onlyOwner` functions anymore. Can only be called by the current owner. NOTE: Renouncing ownership will leave the contract without an owner, thereby removing any functionality that is only available to the owner."
      },
      "transferOwnership(address)": {
        "details": "Transfers ownership of the contract to a new account (`newOwner`). Can only be called by the current owner."
      }
    },
    "version": 1
  },
  "userdoc": {
    "kind": "user",
    "methods": {},
    "version": 1
  },
  "storageLayout": {
    "storage": [
      {
        "astId": 7,
        "contract": "contracts/Masterchef.sol:MasterChef",
        "label": "_owner",
        "offset": 0,
        "slot": "0",
        "type": "t_address"
      },
      {
        "astId": 1080,
        "contract": "contracts/Masterchef.sol:MasterChef",
        "label": "tatu",
        "offset": 0,
        "slot": "1",
        "type": "t_contract(TATU)2329"
      },
      {
        "astId": 1082,
        "contract": "contracts/Masterchef.sol:MasterChef",
        "label": "devaddr",
        "offset": 0,
        "slot": "2",
        "type": "t_address"
      },
      {
        "astId": 1084,
        "contract": "contracts/Masterchef.sol:MasterChef",
        "label": "bonusEndBlock",
        "offset": 0,
        "slot": "3",
        "type": "t_uint256"
      },
      {
        "astId": 1086,
        "contract": "contracts/Masterchef.sol:MasterChef",
        "label": "tatuPerBlock",
        "offset": 0,
        "slot": "4",
        "type": "t_uint256"
      },
      {
        "astId": 1092,
        "contract": "contracts/Masterchef.sol:MasterChef",
        "label": "migrator",
        "offset": 0,
        "slot": "5",
        "type": "t_contract(IMigratorChef)1053"
      },
      {
        "astId": 1096,
        "contract": "contracts/Masterchef.sol:MasterChef",
        "label": "poolInfo",
        "offset": 0,
        "slot": "6",
        "type": "t_array(t_struct(PoolInfo)1077_storage)dyn_storage"
      },
      {
        "astId": 1103,
        "contract": "contracts/Masterchef.sol:MasterChef",
        "label": "userInfo",
        "offset": 0,
        "slot": "7",
        "type": "t_mapping(t_uint256,t_mapping(t_address,t_struct(UserInfo)1067_storage))"
      },
      {
        "astId": 1106,
        "contract": "contracts/Masterchef.sol:MasterChef",
        "label": "totalAllocPoint",
        "offset": 0,
        "slot": "8",
        "type": "t_uint256"
      },
      {
        "astId": 1108,
        "contract": "contracts/Masterchef.sol:MasterChef",
        "label": "startBlock",
        "offset": 0,
        "slot": "9",
        "type": "t_uint256"
      }
    ],
    "types": {
      "t_address": {
        "encoding": "inplace",
        "label": "address",
        "numberOfBytes": "20"
      },
      "t_array(t_struct(PoolInfo)1077_storage)dyn_storage": {
        "base": "t_struct(PoolInfo)1077_storage",
        "encoding": "dynamic_array",
        "label": "struct MasterChef.PoolInfo[]",
        "numberOfBytes": "32"
      },
      "t_contract(IERC20)182": {
        "encoding": "inplace",
        "label": "contract IERC20",
        "numberOfBytes": "20"
      },
      "t_contract(IMigratorChef)1053": {
        "encoding": "inplace",
        "label": "contract IMigratorChef",
        "numberOfBytes": "20"
      },
      "t_contract(TATU)2329": {
        "encoding": "inplace",
        "label": "contract TATU",
        "numberOfBytes": "20"
      },
      "t_mapping(t_address,t_struct(UserInfo)1067_storage)": {
        "encoding": "mapping",
        "key": "t_address",
        "label": "mapping(address => struct MasterChef.UserInfo)",
        "numberOfBytes": "32",
        "value": "t_struct(UserInfo)1067_storage"
      },
      "t_mapping(t_uint256,t_mapping(t_address,t_struct(UserInfo)1067_storage))": {
        "encoding": "mapping",
        "key": "t_uint256",
        "label": "mapping(uint256 => mapping(address => struct MasterChef.UserInfo))",
        "numberOfBytes": "32",
        "value": "t_mapping(t_address,t_struct(UserInfo)1067_storage)"
      },
      "t_struct(PoolInfo)1077_storage": {
        "encoding": "inplace",
        "label": "struct MasterChef.PoolInfo",
        "members": [
          {
            "astId": 1070,
            "contract": "contracts/Masterchef.sol:MasterChef",
            "label": "lpToken",
            "offset": 0,
            "slot": "0",
            "type": "t_contract(IERC20)182"
          },
          {
            "astId": 1072,
            "contract": "contracts/Masterchef.sol:MasterChef",
            "label": "allocPoint",
            "offset": 0,
            "slot": "1",
            "type": "t_uint256"
          },
          {
            "astId": 1074,
            "contract": "contracts/Masterchef.sol:MasterChef",
            "label": "lastRewardBlock",
            "offset": 0,
            "slot": "2",
            "type": "t_uint256"
          },
          {
            "astId": 1076,
            "contract": "contracts/Masterchef.sol:MasterChef",
            "label": "accTatuPerShare",
            "offset": 0,
            "slot": "3",
            "type": "t_uint256"
          }
        ],
        "numberOfBytes": "128"
      },
      "t_struct(UserInfo)1067_storage": {
        "encoding": "inplace",
        "label": "struct MasterChef.UserInfo",
        "members": [
          {
            "astId": 1064,
            "contract": "contracts/Masterchef.sol:MasterChef",
            "label": "amount",
            "offset": 0,
            "slot": "0",
            "type": "t_uint256"
          },
          {
            "astId": 1066,
            "contract": "contracts/Masterchef.sol:MasterChef",
            "label": "rewardDebt",
            "offset": 0,
            "slot": "1",
            "type": "t_uint256"
          }
        ],
        "numberOfBytes": "64"
      },
      "t_uint256": {
        "encoding": "inplace",
        "label": "uint256",
        "numberOfBytes": "32"
      }
    }
  }
}