{
  "address": "0x237840ff450806058Dfd1A335816bd144cAa7113",
  "abi": [
    {
      "inputs": [
        {
          "internalType": "string",
          "name": "initName",
          "type": "string"
        },
        {
          "internalType": "string",
          "name": "initSymbol",
          "type": "string"
        },
        {
          "internalType": "uint256",
          "name": "totalAmount",
          "type": "uint256"
        }
      ],
      "stateMutability": "nonpayable",
      "type": "constructor"
    },
    {
      "anonymous": false,
      "inputs": [
        {
          "indexed": true,
          "internalType": "address",
          "name": "owner",
          "type": "address"
        },
        {
          "indexed": true,
          "internalType": "address",
          "name": "spender",
          "type": "address"
        },
        {
          "indexed": false,
          "internalType": "uint256",
          "name": "value",
          "type": "uint256"
        }
      ],
      "name": "Approval",
      "type": "event"
    },
    {
      "anonymous": false,
      "inputs": [
        {
          "indexed": true,
          "internalType": "address",
          "name": "from",
          "type": "address"
        },
        {
          "indexed": true,
          "internalType": "address",
          "name": "to",
          "type": "address"
        },
        {
          "indexed": false,
          "internalType": "uint256",
          "name": "value",
          "type": "uint256"
        }
      ],
      "name": "Transfer",
      "type": "event"
    },
    {
      "inputs": [],
      "name": "MAX_TOTAL_SUPPLY",
      "outputs": [
        {
          "internalType": "uint256",
          "name": "",
          "type": "uint256"
        }
      ],
      "stateMutability": "view",
      "type": "function"
    },
    {
      "inputs": [
        {
          "internalType": "address",
          "name": "owner",
          "type": "address"
        },
        {
          "internalType": "address",
          "name": "spender",
          "type": "address"
        }
      ],
      "name": "allowance",
      "outputs": [
        {
          "internalType": "uint256",
          "name": "",
          "type": "uint256"
        }
      ],
      "stateMutability": "view",
      "type": "function"
    },
    {
      "inputs": [
        {
          "internalType": "address",
          "name": "spender",
          "type": "address"
        },
        {
          "internalType": "uint256",
          "name": "amount",
          "type": "uint256"
        }
      ],
      "name": "approve",
      "outputs": [
        {
          "internalType": "bool",
          "name": "",
          "type": "bool"
        }
      ],
      "stateMutability": "nonpayable",
      "type": "function"
    },
    {
      "inputs": [
        {
          "internalType": "address",
          "name": "to",
          "type": "address"
        }
      ],
      "name": "balanceOf",
      "outputs": [
        {
          "internalType": "uint256",
          "name": "",
          "type": "uint256"
        }
      ],
      "stateMutability": "view",
      "type": "function"
    },
    {
      "inputs": [
        {
          "internalType": "address",
          "name": "account",
          "type": "address"
        },
        {
          "internalType": "uint256",
          "name": "amount",
          "type": "uint256"
        }
      ],
      "name": "mint",
      "outputs": [
        {
          "internalType": "bool",
          "name": "",
          "type": "bool"
        }
      ],
      "stateMutability": "nonpayable",
      "type": "function"
    },
    {
      "inputs": [],
      "name": "name",
      "outputs": [
        {
          "internalType": "string",
          "name": "",
          "type": "string"
        }
      ],
      "stateMutability": "view",
      "type": "function"
    },
    {
      "inputs": [
        {
          "internalType": "address",
          "name": "minter",
          "type": "address"
        }
      ],
      "name": "setMinter",
      "outputs": [
        {
          "internalType": "bool",
          "name": "",
          "type": "bool"
        }
      ],
      "stateMutability": "nonpayable",
      "type": "function"
    },
    {
      "inputs": [],
      "name": "symbol",
      "outputs": [
        {
          "internalType": "string",
          "name": "",
          "type": "string"
        }
      ],
      "stateMutability": "view",
      "type": "function"
    },
    {
      "inputs": [],
      "name": "totalSupply",
      "outputs": [
        {
          "internalType": "uint256",
          "name": "",
          "type": "uint256"
        }
      ],
      "stateMutability": "view",
      "type": "function"
    },
    {
      "inputs": [
        {
          "internalType": "address",
          "name": "recipient",
          "type": "address"
        },
        {
          "internalType": "uint256",
          "name": "amount",
          "type": "uint256"
        }
      ],
      "name": "transfer",
      "outputs": [
        {
          "internalType": "bool",
          "name": "",
          "type": "bool"
        }
      ],
      "stateMutability": "nonpayable",
      "type": "function"
    },
    {
      "inputs": [
        {
          "internalType": "address",
          "name": "sender",
          "type": "address"
        },
        {
          "internalType": "address",
          "name": "recipient",
          "type": "address"
        },
        {
          "internalType": "uint256",
          "name": "amount",
          "type": "uint256"
        }
      ],
      "name": "transferFrom",
      "outputs": [
        {
          "internalType": "bool",
          "name": "",
          "type": "bool"
        }
      ],
      "stateMutability": "nonpayable",
      "type": "function"
    }
  ],
  "transactionHash": "0xa8cd0df8062d09d8810053ee6cd79af2fc96e4340a4243e0cdfc039581470f69",
  "args": [
    "TATUTOKEN",
    "TATUTOKEN",
    "100000000000000000000"
  ],
  "numDeployments": 2,
  "solcInputHash": "6cd7e7ddecaf85dfbbb7f8167c47b006",
  "bytecode": "0x60806040523480156200001157600080fd5b5060405162000d2c38038062000d2c8339810160408190526200003491620003b6565b600580546001600160a01b031916339081179091556200005590826200008a565b82516200006a9060009060208601906200025d565b508151620000809060019060208501906200025d565b505050506200049e565b6001600160a01b038216620000e65760405162461bcd60e51b815260206004820152601860248201527f6d696e7420746f20746865207a65726f2061646472657373000000000000000060448201526064015b60405180910390fd5b69021e19e0c9bab24000006200010d826004546200024860201b620003231790919060201c565b11156200016d5760405162461bcd60e51b815260206004820152602760248201527f63616e206e6f74206d696e74206d6f7265207468616e206d617820746f74616c60448201526620737570706c7960c81b6064820152608401620000dd565b6005546001600160a01b03163314620001d75760405162461bcd60e51b815260206004820152602560248201527f6d696e746572206164647265737320646f206e6f742068617665207065726d6960448201526439b9b4b7b760d91b6064820152608401620000dd565b620001f3816004546200024860201b620003231790919060201c565b6004556001600160a01b038216600090815260026020908152604090912054620002289183906200032362000248821b17901c565b6001600160a01b0390921660009081526002602052604090209190915550565b600062000256828462000426565b9392505050565b8280546200026b906200044b565b90600052602060002090601f0160209004810192826200028f5760008555620002da565b82601f10620002aa57805160ff1916838001178555620002da565b82800160010185558215620002da579182015b82811115620002da578251825591602001919060010190620002bd565b50620002e8929150620002ec565b5090565b5b80821115620002e85760008155600101620002ed565b600082601f83011262000314578081fd5b81516001600160401b038082111562000331576200033162000488565b604051601f8301601f19908116603f011681019082821181831017156200035c576200035c62000488565b8160405283815260209250868385880101111562000378578485fd5b8491505b838210156200039b57858201830151818301840152908201906200037c565b83821115620003ac57848385830101525b9695505050505050565b600080600060608486031215620003cb578283fd5b83516001600160401b0380821115620003e2578485fd5b620003f08783880162000303565b9450602086015191508082111562000406578384fd5b50620004158682870162000303565b925050604084015190509250925092565b600082198211156200044657634e487b7160e01b81526011600452602481fd5b500190565b600181811c908216806200046057607f821691505b602082108114156200048257634e487b7160e01b600052602260045260246000fd5b50919050565b634e487b7160e01b600052604160045260246000fd5b61087e80620004ae6000396000f3fe608060405234801561001057600080fd5b50600436106100a95760003560e01c806340c10f191161007157806340c10f191461012557806370a082311461013857806395d89b4114610161578063a9059cbb14610169578063dd62ed3e1461017c578063fca3b5aa146101b557600080fd5b806306fdde03146100ae578063095ea7b3146100cc57806318160ddd146100ef57806323b872dd1461010157806333039d3d14610114575b600080fd5b6100b66101c8565b6040516100c39190610775565b60405180910390f35b6100df6100da36600461074c565b610256565b60405190151581526020016100c3565b6004545b6040519081526020016100c3565b6100df61010f366004610711565b61026c565b6100f369021e19e0c9bab240000081565b6100df61013336600461074c565b6102bd565b6100f36101463660046106c5565b6001600160a01b031660009081526002602052604090205490565b6100b66102c9565b6100df61017736600461074c565b6102d6565b6100f361018a3660046106df565b6001600160a01b03918216600090815260036020908152604080832093909416825291909152205490565b6100df6101c33660046106c5565b6102e3565b600080546101d5906107f7565b80601f0160208091040260200160405190810160405280929190818152602001828054610201906107f7565b801561024e5780601f106102235761010080835404028352916020019161024e565b820191906000526020600020905b81548152906001019060200180831161023157829003601f168201915b505050505081565b6000610263338484610336565b50600192915050565b60006102798484846103be565b6001600160a01b0384166000908152600360209081526040808320338085529252909120546102b39186916102ae9086610515565b610336565b5060019392505050565b60006102638383610521565b600180546101d5906107f7565b60006102633384846103be565b6005546000906001600160a01b031633146102fd57600080fd5b50600580546001600160a01b0319166001600160a01b0392909216919091179055600190565b600061032f82846107c8565b9392505050565b6001600160a01b03821661034957600080fd5b6001600160a01b03831661035c57600080fd5b6001600160a01b0383811660008181526003602090815260408083209487168084529482529182902085905590518481527f8c5be1e5ebec7d5bd14f71427d1e84f3dd0314c0f7b2291e5b200ac8c7c3b92591015b60405180910390a3505050565b6001600160a01b0383166104195760405162461bcd60e51b815260206004820152601e60248201527f7472616e736665722066726f6d20746865207a65726f2061646472657373000060448201526064015b60405180910390fd5b6001600160a01b03821661046f5760405162461bcd60e51b815260206004820152601c60248201527f7472616e7366657220746f20746865207a65726f2061646472657373000000006044820152606401610410565b6001600160a01b0383166000908152600260205260409020546104929082610515565b6001600160a01b0380851660009081526002602052604080822093909355908416815220546104c19082610323565b6001600160a01b0380841660008181526002602052604090819020939093559151908516907fddf252ad1be2c89b69c2b068fc378daa952ba7f163c4a11628f55a4df523b3ef906103b19085815260200190565b600061032f82846107e0565b6001600160a01b0382166105775760405162461bcd60e51b815260206004820152601860248201527f6d696e7420746f20746865207a65726f206164647265737300000000000000006044820152606401610410565b60045469021e19e0c9bab2400000906105909083610323565b11156105ee5760405162461bcd60e51b815260206004820152602760248201527f63616e206e6f74206d696e74206d6f7265207468616e206d617820746f74616c60448201526620737570706c7960c81b6064820152608401610410565b6005546001600160a01b031633146106565760405162461bcd60e51b815260206004820152602560248201527f6d696e746572206164647265737320646f206e6f742068617665207065726d6960448201526439b9b4b7b760d91b6064820152608401610410565b6004546106639082610323565b6004556001600160a01b0382166000908152600260205260409020546106899082610323565b6001600160a01b0390921660009081526002602052604090209190915550565b80356001600160a01b03811681146106c057600080fd5b919050565b6000602082840312156106d6578081fd5b61032f826106a9565b600080604083850312156106f1578081fd5b6106fa836106a9565b9150610708602084016106a9565b90509250929050565b600080600060608486031215610725578081fd5b61072e846106a9565b925061073c602085016106a9565b9150604084013590509250925092565b6000806040838503121561075e578182fd5b610767836106a9565b946020939093013593505050565b6000602080835283518082850152825b818110156107a157858101830151858201604001528201610785565b818111156107b25783604083870101525b50601f01601f1916929092016040019392505050565b600082198211156107db576107db610832565b500190565b6000828210156107f2576107f2610832565b500390565b600181811c9082168061080b57607f821691505b6020821081141561082c57634e487b7160e01b600052602260045260246000fd5b50919050565b634e487b7160e01b600052601160045260246000fdfea2646970667358221220b4c82b8f27e56cb8ea67e0021df60fe6f64d0e9ead0574b2961c72077b39df0364736f6c63430008040033",
  "devdoc": {
    "kind": "dev",
    "methods": {
      "allowance(address,address)": {
        "details": "Returns the remaining number of tokens that `spender` will be allowed to spend on behalf of `owner` through {transferFrom}. This is zero by default. This value changes when {approve} or {transferFrom} are called."
      },
      "approve(address,uint256)": {
        "details": "Sets `amount` as the allowance of `spender` over the caller's tokens. Returns a boolean value indicating whether the operation succeeded. IMPORTANT: Beware that changing an allowance with this method brings the risk that someone may use both the old and the new allowance by unfortunate transaction ordering. One possible solution to mitigate this race condition is to first reduce the spender's allowance to 0 and set the desired value afterwards: https://github.com/ethereum/EIPs/issues/20#issuecomment-263524729 Emits an {Approval} event."
      },
      "totalSupply()": {
        "details": "Returns the amount of tokens in existence."
      },
      "transfer(address,uint256)": {
        "details": "Moves `amount` tokens from the caller's account to `recipient`. Returns a boolean value indicating whether the operation succeeded. Emits a {Transfer} event."
      },
      "transferFrom(address,address,uint256)": {
        "details": "Moves `amount` tokens from `sender` to `recipient` using the allowance mechanism. `amount` is then deducted from the caller's allowance. Returns a boolean value indicating whether the operation succeeded. Emits a {Transfer} event."
      }
    },
    "version": 1
  },
  "userdoc": {
    "kind": "user",
    "methods": {},
    "version": 1
  },
  "storageLayout": {
    "storage": [
      {
        "astId": 1973,
        "contract": "contracts/TATU.sol:TATU",
        "label": "name",
        "offset": 0,
        "slot": "0",
        "type": "t_string_storage"
      },
      {
        "astId": 1975,
        "contract": "contracts/TATU.sol:TATU",
        "label": "symbol",
        "offset": 0,
        "slot": "1",
        "type": "t_string_storage"
      },
      {
        "astId": 1979,
        "contract": "contracts/TATU.sol:TATU",
        "label": "_balances",
        "offset": 0,
        "slot": "2",
        "type": "t_mapping(t_address,t_uint256)"
      },
      {
        "astId": 1985,
        "contract": "contracts/TATU.sol:TATU",
        "label": "_allowances",
        "offset": 0,
        "slot": "3",
        "type": "t_mapping(t_address,t_mapping(t_address,t_uint256))"
      },
      {
        "astId": 1987,
        "contract": "contracts/TATU.sol:TATU",
        "label": "_totalSupply",
        "offset": 0,
        "slot": "4",
        "type": "t_uint256"
      },
      {
        "astId": 1992,
        "contract": "contracts/TATU.sol:TATU",
        "label": "_minter",
        "offset": 0,
        "slot": "5",
        "type": "t_address"
      }
    ],
    "types": {
      "t_address": {
        "encoding": "inplace",
        "label": "address",
        "numberOfBytes": "20"
      },
      "t_mapping(t_address,t_mapping(t_address,t_uint256))": {
        "encoding": "mapping",
        "key": "t_address",
        "label": "mapping(address => mapping(address => uint256))",
        "numberOfBytes": "32",
        "value": "t_mapping(t_address,t_uint256)"
      },
      "t_mapping(t_address,t_uint256)": {
        "encoding": "mapping",
        "key": "t_address",
        "label": "mapping(address => uint256)",
        "numberOfBytes": "32",
        "value": "t_uint256"
      },
      "t_string_storage": {
        "encoding": "bytes",
        "label": "string",
        "numberOfBytes": "32"
      },
      "t_uint256": {
        "encoding": "inplace",
        "label": "uint256",
        "numberOfBytes": "32"
      }
    }
  }
}