{
  "address": "0x5FbDB2315678afecb367f032d93F642f64180aa3",
  "abi": [
    {
      "inputs": [
        {
          "internalType": "string",
          "name": "initName",
          "type": "string"
        },
        {
          "internalType": "string",
          "name": "initSymbol",
          "type": "string"
        },
        {
          "internalType": "uint256",
          "name": "totalAmount",
          "type": "uint256"
        }
      ],
      "stateMutability": "nonpayable",
      "type": "constructor"
    },
    {
      "anonymous": false,
      "inputs": [
        {
          "indexed": true,
          "internalType": "address",
          "name": "owner",
          "type": "address"
        },
        {
          "indexed": true,
          "internalType": "address",
          "name": "spender",
          "type": "address"
        },
        {
          "indexed": false,
          "internalType": "uint256",
          "name": "value",
          "type": "uint256"
        }
      ],
      "name": "Approval",
      "type": "event"
    },
    {
      "anonymous": false,
      "inputs": [
        {
          "indexed": true,
          "internalType": "address",
          "name": "from",
          "type": "address"
        },
        {
          "indexed": true,
          "internalType": "address",
          "name": "to",
          "type": "address"
        },
        {
          "indexed": false,
          "internalType": "uint256",
          "name": "value",
          "type": "uint256"
        }
      ],
      "name": "Transfer",
      "type": "event"
    },
    {
      "inputs": [],
      "name": "MAX_TOTAL_SUPPLY",
      "outputs": [
        {
          "internalType": "uint256",
          "name": "",
          "type": "uint256"
        }
      ],
      "stateMutability": "view",
      "type": "function"
    },
    {
      "inputs": [],
      "name": "_name",
      "outputs": [
        {
          "internalType": "string",
          "name": "",
          "type": "string"
        }
      ],
      "stateMutability": "view",
      "type": "function"
    },
    {
      "inputs": [],
      "name": "_symbol",
      "outputs": [
        {
          "internalType": "string",
          "name": "",
          "type": "string"
        }
      ],
      "stateMutability": "view",
      "type": "function"
    },
    {
      "inputs": [
        {
          "internalType": "address",
          "name": "owner",
          "type": "address"
        },
        {
          "internalType": "address",
          "name": "spender",
          "type": "address"
        }
      ],
      "name": "allowance",
      "outputs": [
        {
          "internalType": "uint256",
          "name": "",
          "type": "uint256"
        }
      ],
      "stateMutability": "view",
      "type": "function"
    },
    {
      "inputs": [
        {
          "internalType": "address",
          "name": "spender",
          "type": "address"
        },
        {
          "internalType": "uint256",
          "name": "amount",
          "type": "uint256"
        }
      ],
      "name": "approve",
      "outputs": [
        {
          "internalType": "bool",
          "name": "",
          "type": "bool"
        }
      ],
      "stateMutability": "nonpayable",
      "type": "function"
    },
    {
      "inputs": [
        {
          "internalType": "address",
          "name": "to",
          "type": "address"
        }
      ],
      "name": "balanceOf",
      "outputs": [
        {
          "internalType": "uint256",
          "name": "",
          "type": "uint256"
        }
      ],
      "stateMutability": "view",
      "type": "function"
    },
    {
      "inputs": [
        {
          "internalType": "address",
          "name": "account",
          "type": "address"
        },
        {
          "internalType": "uint256",
          "name": "amount",
          "type": "uint256"
        }
      ],
      "name": "mint",
      "outputs": [
        {
          "internalType": "bool",
          "name": "",
          "type": "bool"
        }
      ],
      "stateMutability": "nonpayable",
      "type": "function"
    },
    {
      "inputs": [
        {
          "internalType": "address",
          "name": "minter",
          "type": "address"
        }
      ],
      "name": "setMinter",
      "outputs": [
        {
          "internalType": "bool",
          "name": "",
          "type": "bool"
        }
      ],
      "stateMutability": "nonpayable",
      "type": "function"
    },
    {
      "inputs": [],
      "name": "totalSupply",
      "outputs": [
        {
          "internalType": "uint256",
          "name": "",
          "type": "uint256"
        }
      ],
      "stateMutability": "view",
      "type": "function"
    },
    {
      "inputs": [
        {
          "internalType": "address",
          "name": "recipient",
          "type": "address"
        },
        {
          "internalType": "uint256",
          "name": "amount",
          "type": "uint256"
        }
      ],
      "name": "transfer",
      "outputs": [
        {
          "internalType": "bool",
          "name": "",
          "type": "bool"
        }
      ],
      "stateMutability": "nonpayable",
      "type": "function"
    },
    {
      "inputs": [
        {
          "internalType": "address",
          "name": "sender",
          "type": "address"
        },
        {
          "internalType": "address",
          "name": "recipient",
          "type": "address"
        },
        {
          "internalType": "uint256",
          "name": "amount",
          "type": "uint256"
        }
      ],
      "name": "transferFrom",
      "outputs": [
        {
          "internalType": "bool",
          "name": "",
          "type": "bool"
        }
      ],
      "stateMutability": "nonpayable",
      "type": "function"
    }
  ],
  "transactionHash": "0x0c62cdf65925c87e910a2a7ea5bddef2f50289d56952bd40336577861dd04819",
  "args": [
    "TATUTOKEN",
    "TATUTOKEN",
    "100000000000000000000"
  ],
  "numDeployments": 1,
  "solcInputHash": "88c05311902ac528977f038e01b1ca58",
  "bytecode": "0x60806040523480156200001157600080fd5b5060405162000d2838038062000d288339810160408190526200003491620003b6565b600580546001600160a01b031916339081179091556200005590826200008a565b82516200006a9060009060208601906200025d565b508151620000809060019060208501906200025d565b505050506200049e565b6001600160a01b038216620000e65760405162461bcd60e51b815260206004820152601860248201527f6d696e7420746f20746865207a65726f2061646472657373000000000000000060448201526064015b60405180910390fd5b69021e19e0c9bab24000006200010d826004546200024860201b6200031f1790919060201c565b11156200016d5760405162461bcd60e51b815260206004820152602760248201527f63616e206e6f74206d696e74206d6f7265207468616e206d617820746f74616c60448201526620737570706c7960c81b6064820152608401620000dd565b6005546001600160a01b03163314620001d75760405162461bcd60e51b815260206004820152602560248201527f6d696e746572206164647265737320646f206e6f742068617665207065726d6960448201526439b9b4b7b760d91b6064820152608401620000dd565b620001f3816004546200024860201b6200031f1790919060201c565b6004556001600160a01b038216600090815260026020908152604090912054620002289183906200031f62000248821b17901c565b6001600160a01b0390921660009081526002602052604090209190915550565b600062000256828462000426565b9392505050565b8280546200026b906200044b565b90600052602060002090601f0160209004810192826200028f5760008555620002da565b82601f10620002aa57805160ff1916838001178555620002da565b82800160010185558215620002da579182015b82811115620002da578251825591602001919060010190620002bd565b50620002e8929150620002ec565b5090565b5b80821115620002e85760008155600101620002ed565b600082601f83011262000314578081fd5b81516001600160401b038082111562000331576200033162000488565b604051601f8301601f19908116603f011681019082821181831017156200035c576200035c62000488565b8160405283815260209250868385880101111562000378578485fd5b8491505b838210156200039b57858201830151818301840152908201906200037c565b83821115620003ac57848385830101525b9695505050505050565b600080600060608486031215620003cb578283fd5b83516001600160401b0380821115620003e2578485fd5b620003f08783880162000303565b9450602086015191508082111562000406578384fd5b50620004158682870162000303565b925050604084015190509250925092565b600082198211156200044657634e487b7160e01b81526011600452602481fd5b500190565b600181811c908216806200046057607f821691505b602082108114156200048257634e487b7160e01b600052602260045260246000fd5b50919050565b634e487b7160e01b600052604160045260246000fd5b61087a80620004ae6000396000f3fe608060405234801561001057600080fd5b50600436106100a95760003560e01c806370a082311161007157806370a082311461011f578063a9059cbb14610148578063b09f12661461015b578063d28d885214610170578063dd62ed3e14610178578063fca3b5aa146101b157600080fd5b8063095ea7b3146100ae57806318160ddd146100d657806323b872dd146100e857806333039d3d146100fb57806340c10f191461010c575b600080fd5b6100c16100bc366004610748565b6101c4565b60405190151581526020015b60405180910390f35b6004545b6040519081526020016100cd565b6100c16100f636600461070d565b6101da565b6100da69021e19e0c9bab240000081565b6100c161011a366004610748565b61022b565b6100da61012d3660046106c1565b6001600160a01b031660009081526002602052604090205490565b6100c1610156366004610748565b610237565b610163610244565b6040516100cd9190610771565b6101636102d2565b6100da6101863660046106db565b6001600160a01b03918216600090815260036020908152604080832093909416825291909152205490565b6100c16101bf3660046106c1565b6102df565b60006101d1338484610332565b50600192915050565b60006101e78484846103ba565b6001600160a01b03841660009081526003602090815260408083203380855292529091205461022191869161021c9086610511565b610332565b5060019392505050565b60006101d1838361051d565b60006101d13384846103ba565b60018054610251906107f3565b80601f016020809104026020016040519081016040528092919081815260200182805461027d906107f3565b80156102ca5780601f1061029f576101008083540402835291602001916102ca565b820191906000526020600020905b8154815290600101906020018083116102ad57829003601f168201915b505050505081565b60008054610251906107f3565b6005546000906001600160a01b031633146102f957600080fd5b50600580546001600160a01b0319166001600160a01b0392909216919091179055600190565b600061032b82846107c4565b9392505050565b6001600160a01b03821661034557600080fd5b6001600160a01b03831661035857600080fd5b6001600160a01b0383811660008181526003602090815260408083209487168084529482529182902085905590518481527f8c5be1e5ebec7d5bd14f71427d1e84f3dd0314c0f7b2291e5b200ac8c7c3b92591015b60405180910390a3505050565b6001600160a01b0383166104155760405162461bcd60e51b815260206004820152601e60248201527f7472616e736665722066726f6d20746865207a65726f2061646472657373000060448201526064015b60405180910390fd5b6001600160a01b03821661046b5760405162461bcd60e51b815260206004820152601c60248201527f7472616e7366657220746f20746865207a65726f206164647265737300000000604482015260640161040c565b6001600160a01b03831660009081526002602052604090205461048e9082610511565b6001600160a01b0380851660009081526002602052604080822093909355908416815220546104bd908261031f565b6001600160a01b0380841660008181526002602052604090819020939093559151908516907fddf252ad1be2c89b69c2b068fc378daa952ba7f163c4a11628f55a4df523b3ef906103ad9085815260200190565b600061032b82846107dc565b6001600160a01b0382166105735760405162461bcd60e51b815260206004820152601860248201527f6d696e7420746f20746865207a65726f20616464726573730000000000000000604482015260640161040c565b60045469021e19e0c9bab24000009061058c908361031f565b11156105ea5760405162461bcd60e51b815260206004820152602760248201527f63616e206e6f74206d696e74206d6f7265207468616e206d617820746f74616c60448201526620737570706c7960c81b606482015260840161040c565b6005546001600160a01b031633146106525760405162461bcd60e51b815260206004820152602560248201527f6d696e746572206164647265737320646f206e6f742068617665207065726d6960448201526439b9b4b7b760d91b606482015260840161040c565b60045461065f908261031f565b6004556001600160a01b038216600090815260026020526040902054610685908261031f565b6001600160a01b0390921660009081526002602052604090209190915550565b80356001600160a01b03811681146106bc57600080fd5b919050565b6000602082840312156106d2578081fd5b61032b826106a5565b600080604083850312156106ed578081fd5b6106f6836106a5565b9150610704602084016106a5565b90509250929050565b600080600060608486031215610721578081fd5b61072a846106a5565b9250610738602085016106a5565b9150604084013590509250925092565b6000806040838503121561075a578182fd5b610763836106a5565b946020939093013593505050565b6000602080835283518082850152825b8181101561079d57858101830151858201604001528201610781565b818111156107ae5783604083870101525b50601f01601f1916929092016040019392505050565b600082198211156107d7576107d761082e565b500190565b6000828210156107ee576107ee61082e565b500390565b600181811c9082168061080757607f821691505b6020821081141561082857634e487b7160e01b600052602260045260246000fd5b50919050565b634e487b7160e01b600052601160045260246000fdfea264697066735822122040af823f3d0a38bea8513bd1d0072d9c844166c22e61a2c7f396c87020a8874d64736f6c63430008040033",
  "devdoc": {
    "kind": "dev",
    "methods": {
      "allowance(address,address)": {
        "details": "Returns the remaining number of tokens that `spender` will be allowed to spend on behalf of `owner` through {transferFrom}. This is zero by default. This value changes when {approve} or {transferFrom} are called."
      },
      "approve(address,uint256)": {
        "details": "Sets `amount` as the allowance of `spender` over the caller's tokens. Returns a boolean value indicating whether the operation succeeded. IMPORTANT: Beware that changing an allowance with this method brings the risk that someone may use both the old and the new allowance by unfortunate transaction ordering. One possible solution to mitigate this race condition is to first reduce the spender's allowance to 0 and set the desired value afterwards: https://github.com/ethereum/EIPs/issues/20#issuecomment-263524729 Emits an {Approval} event."
      },
      "totalSupply()": {
        "details": "Returns the amount of tokens in existence."
      },
      "transfer(address,uint256)": {
        "details": "Moves `amount` tokens from the caller's account to `recipient`. Returns a boolean value indicating whether the operation succeeded. Emits a {Transfer} event."
      },
      "transferFrom(address,address,uint256)": {
        "details": "Moves `amount` tokens from `sender` to `recipient` using the allowance mechanism. `amount` is then deducted from the caller's allowance. Returns a boolean value indicating whether the operation succeeded. Emits a {Transfer} event."
      }
    },
    "version": 1
  },
  "userdoc": {
    "kind": "user",
    "methods": {},
    "version": 1
  },
  "storageLayout": {
    "storage": [
      {
        "astId": 1973,
        "contract": "contracts/TATU.sol:TATU",
        "label": "_name",
        "offset": 0,
        "slot": "0",
        "type": "t_string_storage"
      },
      {
        "astId": 1975,
        "contract": "contracts/TATU.sol:TATU",
        "label": "_symbol",
        "offset": 0,
        "slot": "1",
        "type": "t_string_storage"
      },
      {
        "astId": 1979,
        "contract": "contracts/TATU.sol:TATU",
        "label": "_balances",
        "offset": 0,
        "slot": "2",
        "type": "t_mapping(t_address,t_uint256)"
      },
      {
        "astId": 1985,
        "contract": "contracts/TATU.sol:TATU",
        "label": "_allowances",
        "offset": 0,
        "slot": "3",
        "type": "t_mapping(t_address,t_mapping(t_address,t_uint256))"
      },
      {
        "astId": 1987,
        "contract": "contracts/TATU.sol:TATU",
        "label": "_totalSupply",
        "offset": 0,
        "slot": "4",
        "type": "t_uint256"
      },
      {
        "astId": 1992,
        "contract": "contracts/TATU.sol:TATU",
        "label": "_minter",
        "offset": 0,
        "slot": "5",
        "type": "t_address"
      }
    ],
    "types": {
      "t_address": {
        "encoding": "inplace",
        "label": "address",
        "numberOfBytes": "20"
      },
      "t_mapping(t_address,t_mapping(t_address,t_uint256))": {
        "encoding": "mapping",
        "key": "t_address",
        "label": "mapping(address => mapping(address => uint256))",
        "numberOfBytes": "32",
        "value": "t_mapping(t_address,t_uint256)"
      },
      "t_mapping(t_address,t_uint256)": {
        "encoding": "mapping",
        "key": "t_address",
        "label": "mapping(address => uint256)",
        "numberOfBytes": "32",
        "value": "t_uint256"
      },
      "t_string_storage": {
        "encoding": "bytes",
        "label": "string",
        "numberOfBytes": "32"
      },
      "t_uint256": {
        "encoding": "inplace",
        "label": "uint256",
        "numberOfBytes": "32"
      }
    }
  }
}