{
  "address": "0xEA2F34D0Aa50703B2D7C81FaC61926B8b0771c9E",
  "abi": [
    {
      "inputs": [
        {
          "internalType": "string",
          "name": "initName",
          "type": "string"
        },
        {
          "internalType": "string",
          "name": "initSymbol",
          "type": "string"
        },
        {
          "internalType": "uint256",
          "name": "totalAmount",
          "type": "uint256"
        }
      ],
      "stateMutability": "nonpayable",
      "type": "constructor"
    },
    {
      "anonymous": false,
      "inputs": [
        {
          "indexed": true,
          "internalType": "address",
          "name": "owner",
          "type": "address"
        },
        {
          "indexed": true,
          "internalType": "address",
          "name": "spender",
          "type": "address"
        },
        {
          "indexed": false,
          "internalType": "uint256",
          "name": "value",
          "type": "uint256"
        }
      ],
      "name": "Approval",
      "type": "event"
    },
    {
      "anonymous": false,
      "inputs": [
        {
          "indexed": true,
          "internalType": "address",
          "name": "from",
          "type": "address"
        },
        {
          "indexed": true,
          "internalType": "address",
          "name": "to",
          "type": "address"
        },
        {
          "indexed": false,
          "internalType": "uint256",
          "name": "value",
          "type": "uint256"
        }
      ],
      "name": "Transfer",
      "type": "event"
    },
    {
      "inputs": [],
      "name": "MAX_TOTAL_SUPPLY",
      "outputs": [
        {
          "internalType": "uint256",
          "name": "",
          "type": "uint256"
        }
      ],
      "stateMutability": "view",
      "type": "function"
    },
    {
      "inputs": [],
      "name": "_name",
      "outputs": [
        {
          "internalType": "string",
          "name": "",
          "type": "string"
        }
      ],
      "stateMutability": "view",
      "type": "function"
    },
    {
      "inputs": [],
      "name": "_symbol",
      "outputs": [
        {
          "internalType": "string",
          "name": "",
          "type": "string"
        }
      ],
      "stateMutability": "view",
      "type": "function"
    },
    {
      "inputs": [
        {
          "internalType": "address",
          "name": "owner",
          "type": "address"
        },
        {
          "internalType": "address",
          "name": "spender",
          "type": "address"
        }
      ],
      "name": "allowance",
      "outputs": [
        {
          "internalType": "uint256",
          "name": "",
          "type": "uint256"
        }
      ],
      "stateMutability": "view",
      "type": "function"
    },
    {
      "inputs": [
        {
          "internalType": "address",
          "name": "spender",
          "type": "address"
        },
        {
          "internalType": "uint256",
          "name": "amount",
          "type": "uint256"
        }
      ],
      "name": "approve",
      "outputs": [
        {
          "internalType": "bool",
          "name": "",
          "type": "bool"
        }
      ],
      "stateMutability": "nonpayable",
      "type": "function"
    },
    {
      "inputs": [
        {
          "internalType": "address",
          "name": "to",
          "type": "address"
        }
      ],
      "name": "balanceOf",
      "outputs": [
        {
          "internalType": "uint256",
          "name": "",
          "type": "uint256"
        }
      ],
      "stateMutability": "view",
      "type": "function"
    },
    {
      "inputs": [],
      "name": "decimals",
      "outputs": [
        {
          "internalType": "uint8",
          "name": "",
          "type": "uint8"
        }
      ],
      "stateMutability": "view",
      "type": "function"
    },
    {
      "inputs": [
        {
          "internalType": "address",
          "name": "account",
          "type": "address"
        },
        {
          "internalType": "uint256",
          "name": "amount",
          "type": "uint256"
        }
      ],
      "name": "mint",
      "outputs": [
        {
          "internalType": "bool",
          "name": "",
          "type": "bool"
        }
      ],
      "stateMutability": "nonpayable",
      "type": "function"
    },
    {
      "inputs": [
        {
          "internalType": "address",
          "name": "minter",
          "type": "address"
        }
      ],
      "name": "setMinter",
      "outputs": [
        {
          "internalType": "bool",
          "name": "",
          "type": "bool"
        }
      ],
      "stateMutability": "nonpayable",
      "type": "function"
    },
    {
      "inputs": [],
      "name": "totalSupply",
      "outputs": [
        {
          "internalType": "uint256",
          "name": "",
          "type": "uint256"
        }
      ],
      "stateMutability": "view",
      "type": "function"
    },
    {
      "inputs": [
        {
          "internalType": "address",
          "name": "recipient",
          "type": "address"
        },
        {
          "internalType": "uint256",
          "name": "amount",
          "type": "uint256"
        }
      ],
      "name": "transfer",
      "outputs": [
        {
          "internalType": "bool",
          "name": "",
          "type": "bool"
        }
      ],
      "stateMutability": "nonpayable",
      "type": "function"
    },
    {
      "inputs": [
        {
          "internalType": "address",
          "name": "sender",
          "type": "address"
        },
        {
          "internalType": "address",
          "name": "recipient",
          "type": "address"
        },
        {
          "internalType": "uint256",
          "name": "amount",
          "type": "uint256"
        }
      ],
      "name": "transferFrom",
      "outputs": [
        {
          "internalType": "bool",
          "name": "",
          "type": "bool"
        }
      ],
      "stateMutability": "nonpayable",
      "type": "function"
    }
  ],
  "transactionHash": "0xd041789df1ce684df909a83c8f5d84e1a3c6c8c8d847d01bab211f35c5e8f5b4",
  "args": [
    "TATUTOKEN",
    "TATUTOKEN",
    "1000000000000000000000000"
  ],
  "numDeployments": 1,
  "solcInputHash": "a8336348c195ff7b4780a2d3151aa1d6",
  "bytecode": "0x60806040523480156200001157600080fd5b5060405162000f5e38038062000f5e8339810160408190526200003491620003bc565b600580546001600160a01b031916339081179091556200005590826200008a565b82516200006a90600090602086019062000263565b5081516200008090600190602085019062000263565b50505050620005b8565b6001600160a01b038216620000e65760405162461bcd60e51b815260206004820152601860248201527f6d696e7420746f20746865207a65726f2061646472657373000000000000000060448201526064015b60405180910390fd5b620000f5601261271062000490565b62000111826004546200024c60201b6200034c1790919060201c565b1115620001715760405162461bcd60e51b815260206004820152602760248201527f63616e206e6f74206d696e74206d6f7265207468616e206d617820746f74616c60448201526620737570706c7960c81b6064820152608401620000dd565b6005546001600160a01b03163314620001db5760405162461bcd60e51b815260206004820152602560248201527f6d696e746572206164647265737320646f206e6f742068617665207065726d6960448201526439b9b4b7b760d91b6064820152608401620000dd565b620001f7816004546200024c60201b6200034c1790919060201c565b6004556001600160a01b0382166000908152600260209081526040909120546200022c9183906200034c6200024c821b17901c565b6001600160a01b0390921660009081526002602052604090209190915550565b60006200025a82846200042c565b90505b92915050565b82805462000271906200054f565b90600052602060002090601f016020900481019282620002955760008555620002e0565b82601f10620002b057805160ff1916838001178555620002e0565b82800160010185558215620002e0579182015b82811115620002e0578251825591602001919060010190620002c3565b50620002ee929150620002f2565b5090565b5b80821115620002ee5760008155600101620002f3565b600082601f8301126200031a578081fd5b81516001600160401b0380821115620003375762000337620005a2565b604051601f8301601f19908116603f01168101908282118183101715620003625762000362620005a2565b816040528381526020925086838588010111156200037e578485fd5b8491505b83821015620003a1578582018301518183018401529082019062000382565b83821115620003b257848385830101525b9695505050505050565b600080600060608486031215620003d1578283fd5b83516001600160401b0380821115620003e8578485fd5b620003f68783880162000309565b945060208601519150808211156200040c578384fd5b506200041b8682870162000309565b925050604084015190509250925092565b600082198211156200044257620004426200058c565b500190565b600181815b80851115620004885781600019048211156200046c576200046c6200058c565b808516156200047a57918102915b93841c93908002906200044c565b509250929050565b60006200025a60ff841683600082620004ac575060016200025d565b81620004bb575060006200025d565b8160018114620004d45760028114620004df57620004ff565b60019150506200025d565b60ff841115620004f357620004f36200058c565b50506001821b6200025d565b5060208310610133831016604e8410600b841016171562000524575081810a6200025d565b62000530838362000447565b80600019048211156200054757620005476200058c565b029392505050565b600181811c908216806200056457607f821691505b602082108114156200058657634e487b7160e01b600052602260045260246000fd5b50919050565b634e487b7160e01b600052601160045260246000fd5b634e487b7160e01b600052604160045260246000fd5b61099680620005c86000396000f3fe608060405234801561001057600080fd5b50600436106100b45760003560e01c806370a082311161007157806370a082311461013b578063a9059cbb14610164578063b09f126614610177578063d28d88521461018c578063dd62ed3e14610194578063fca3b5aa146101cd57600080fd5b8063095ea7b3146100b957806318160ddd146100e157806323b872dd146100f3578063313ce5671461010657806333039d3d1461012057806340c10f1914610128575b600080fd5b6100cc6100c7366004610776565b6101e0565b60405190151581526020015b60405180910390f35b6004545b6040519081526020016100d8565b6100cc61010136600461073b565b6101f7565b61010e601281565b60405160ff90911681526020016100d8565b6100e5610248565b6100cc610136366004610776565b610258565b6100e56101493660046106ef565b6001600160a01b031660009081526002602052604090205490565b6100cc610172366004610776565b610264565b61017f610271565b6040516100d8919061079f565b61017f6102ff565b6100e56101a2366004610709565b6001600160a01b03918216600090815260036020908152604080832093909416825291909152205490565b6100cc6101db3660046106ef565b61030c565b60006101ed33848461035f565b5060015b92915050565b60006102048484846103e7565b6001600160a01b03841660009081526003602090815260408083203380855292529091205461023e918691610239908661053e565b61035f565b5060019392505050565b610255601261271061084d565b81565b60006101ed838361054a565b60006101ed3384846103e7565b6001805461027e9061090f565b80601f01602080910402602001604051908101604052809291908181526020018280546102aa9061090f565b80156102f75780601f106102cc576101008083540402835291602001916102f7565b820191906000526020600020905b8154815290600101906020018083116102da57829003601f168201915b505050505081565b6000805461027e9061090f565b6005546000906001600160a01b0316331461032657600080fd5b50600580546001600160a01b0319166001600160a01b0392909216919091179055600190565b600061035882846107f2565b9392505050565b6001600160a01b03821661037257600080fd5b6001600160a01b03831661038557600080fd5b6001600160a01b0383811660008181526003602090815260408083209487168084529482529182902085905590518481527f8c5be1e5ebec7d5bd14f71427d1e84f3dd0314c0f7b2291e5b200ac8c7c3b92591015b60405180910390a3505050565b6001600160a01b0383166104425760405162461bcd60e51b815260206004820152601e60248201527f7472616e736665722066726f6d20746865207a65726f2061646472657373000060448201526064015b60405180910390fd5b6001600160a01b0382166104985760405162461bcd60e51b815260206004820152601c60248201527f7472616e7366657220746f20746865207a65726f2061646472657373000000006044820152606401610439565b6001600160a01b0383166000908152600260205260409020546104bb908261053e565b6001600160a01b0380851660009081526002602052604080822093909355908416815220546104ea908261034c565b6001600160a01b0380841660008181526002602052604090819020939093559151908516907fddf252ad1be2c89b69c2b068fc378daa952ba7f163c4a11628f55a4df523b3ef906103da9085815260200190565b600061035882846108f8565b6001600160a01b0382166105a05760405162461bcd60e51b815260206004820152601860248201527f6d696e7420746f20746865207a65726f206164647265737300000000000000006044820152606401610439565b6105ad601261271061084d565b6004546105ba908361034c565b11156106185760405162461bcd60e51b815260206004820152602760248201527f63616e206e6f74206d696e74206d6f7265207468616e206d617820746f74616c60448201526620737570706c7960c81b6064820152608401610439565b6005546001600160a01b031633146106805760405162461bcd60e51b815260206004820152602560248201527f6d696e746572206164647265737320646f206e6f742068617665207065726d6960448201526439b9b4b7b760d91b6064820152608401610439565b60045461068d908261034c565b6004556001600160a01b0382166000908152600260205260409020546106b3908261034c565b6001600160a01b0390921660009081526002602052604090209190915550565b80356001600160a01b03811681146106ea57600080fd5b919050565b600060208284031215610700578081fd5b610358826106d3565b6000806040838503121561071b578081fd5b610724836106d3565b9150610732602084016106d3565b90509250929050565b60008060006060848603121561074f578081fd5b610758846106d3565b9250610766602085016106d3565b9150604084013590509250925092565b60008060408385031215610788578182fd5b610791836106d3565b946020939093013593505050565b6000602080835283518082850152825b818110156107cb578581018301518582016040015282016107af565b818111156107dc5783604083870101525b50601f01601f1916929092016040019392505050565b600082198211156108055761080561094a565b500190565b600181815b8085111561084557816000190482111561082b5761082b61094a565b8085161561083857918102915b93841c939080029061080f565b509250929050565b600061035860ff841683600082610866575060016101f1565b81610873575060006101f1565b81600181146108895760028114610893576108af565b60019150506101f1565b60ff8411156108a4576108a461094a565b50506001821b6101f1565b5060208310610133831016604e8410600b84101617156108d2575081810a6101f1565b6108dc838361080a565b80600019048211156108f0576108f061094a565b029392505050565b60008282101561090a5761090a61094a565b500390565b600181811c9082168061092357607f821691505b6020821081141561094457634e487b7160e01b600052602260045260246000fd5b50919050565b634e487b7160e01b600052601160045260246000fdfea2646970667358221220146a076a512a3ad87e8319d08c5aeefb551acb7b6acc92d9db2d725c6cb16a3b64736f6c63430008040033",
  "devdoc": {
    "kind": "dev",
    "methods": {
      "allowance(address,address)": {
        "details": "Returns the remaining number of tokens that `spender` will be allowed to spend on behalf of `owner` through {transferFrom}. This is zero by default. This value changes when {approve} or {transferFrom} are called."
      },
      "approve(address,uint256)": {
        "details": "Sets `amount` as the allowance of `spender` over the caller's tokens. Returns a boolean value indicating whether the operation succeeded. IMPORTANT: Beware that changing an allowance with this method brings the risk that someone may use both the old and the new allowance by unfortunate transaction ordering. One possible solution to mitigate this race condition is to first reduce the spender's allowance to 0 and set the desired value afterwards: https://github.com/ethereum/EIPs/issues/20#issuecomment-263524729 Emits an {Approval} event."
      },
      "totalSupply()": {
        "details": "Returns the amount of tokens in existence."
      },
      "transfer(address,uint256)": {
        "details": "Moves `amount` tokens from the caller's account to `recipient`. Returns a boolean value indicating whether the operation succeeded. Emits a {Transfer} event."
      },
      "transferFrom(address,address,uint256)": {
        "details": "Moves `amount` tokens from `sender` to `recipient` using the allowance mechanism. `amount` is then deducted from the caller's allowance. Returns a boolean value indicating whether the operation succeeded. Emits a {Transfer} event."
      }
    },
    "version": 1
  },
  "userdoc": {
    "kind": "user",
    "methods": {},
    "version": 1
  },
  "storageLayout": {
    "storage": [
      {
        "astId": 1973,
        "contract": "contracts/TATU.sol:TATU",
        "label": "_name",
        "offset": 0,
        "slot": "0",
        "type": "t_string_storage"
      },
      {
        "astId": 1975,
        "contract": "contracts/TATU.sol:TATU",
        "label": "_symbol",
        "offset": 0,
        "slot": "1",
        "type": "t_string_storage"
      },
      {
        "astId": 1982,
        "contract": "contracts/TATU.sol:TATU",
        "label": "_balances",
        "offset": 0,
        "slot": "2",
        "type": "t_mapping(t_address,t_uint256)"
      },
      {
        "astId": 1988,
        "contract": "contracts/TATU.sol:TATU",
        "label": "_allowances",
        "offset": 0,
        "slot": "3",
        "type": "t_mapping(t_address,t_mapping(t_address,t_uint256))"
      },
      {
        "astId": 1990,
        "contract": "contracts/TATU.sol:TATU",
        "label": "_totalSupply",
        "offset": 0,
        "slot": "4",
        "type": "t_uint256"
      },
      {
        "astId": 1997,
        "contract": "contracts/TATU.sol:TATU",
        "label": "_minter",
        "offset": 0,
        "slot": "5",
        "type": "t_address"
      }
    ],
    "types": {
      "t_address": {
        "encoding": "inplace",
        "label": "address",
        "numberOfBytes": "20"
      },
      "t_mapping(t_address,t_mapping(t_address,t_uint256))": {
        "encoding": "mapping",
        "key": "t_address",
        "label": "mapping(address => mapping(address => uint256))",
        "numberOfBytes": "32",
        "value": "t_mapping(t_address,t_uint256)"
      },
      "t_mapping(t_address,t_uint256)": {
        "encoding": "mapping",
        "key": "t_address",
        "label": "mapping(address => uint256)",
        "numberOfBytes": "32",
        "value": "t_uint256"
      },
      "t_string_storage": {
        "encoding": "bytes",
        "label": "string",
        "numberOfBytes": "32"
      },
      "t_uint256": {
        "encoding": "inplace",
        "label": "uint256",
        "numberOfBytes": "32"
      }
    }
  }
}